:1005B000E4F52CF52BF52AF529C203C200C202C2CC
:1005C00001120D537E097F1B8E088F09750A09756C
:1005D0000B2D750C09750D4DEE54E070030206C429
:1005E000752D00752E808E2F8F30C374879FFF74FA
:1005F000099ECF2402CF3400FEE48F288E27F526F3
:10060000F525F524F523F522F521AF28AE27AD26F3
:10061000AC25AB24AA23A922A821C312090A502A77
:10062000E52E2524F582E52D3523F58374CDF0E400
:10063000FAF9F8E5242401F524EA3523F523E93510
:1006400022F522E83521F52180C0E4F524F523F5D3
:1006500022F521AF28AE27AD26AC25AB24AA23A9CD
:1006600022A821C312090A5035AE23AF24E5302F4A
:10067000F582E52F3EF583E0FDE52E2FF582E52D91
:100680003EF583EDF0E4FAF9F8EF2401F524EA3EB3
:10069000F523E93522F522E83521F52180B5852DB0
:1006A00008852E09741B2480FF740934FFFEC3E5FE
:1006B0000B9FF50BE50A9EF50AC3E50D9FF50DE5C9
:1006C0000C9EF50CD2E843D820907F95E044C0F012
:1006D000907FAFE04401F0907FAEE0441DF0D2AFD8
:1006E000538EF8300105120080C20130031A12093E
:1006F000FD5015C2031209DC200007907FD6E020D0
:0D070000E7F3120C93120D611209FF80D671
:01070D0022C9
:10008000907FE9E0700302021F14700302029B24B8
:10009000FE700302031224FB7003020219147003A2
:1000A00002021314700302020714700302020D24EB
:1000B000056003020366120D634003020372907F22
:1000C000EBE024FE6019146045240260030201FD88
:1000D000E508907FD4F0E509907FD5F00203729097
:1000E0007FEAE0FF120AF3AA06A9077B018B318A97
:1000F000328933EA49600DEE907FD4F0EF907FD5DE
:10010000F0020372907FB4E04401F0020372907F2A
:10011000EAE0FF120C06AA06A9077B018B318A329E
:090120008933EA4970030201F37E
:10012900AB318B388A39893A1208A2F53B907FEEB8
:10013900E0FFE53BD39F4003E0F53BE53B7003025D
:1001490001E5E4F537F536F535F534E53BC394407B
:100159005004AF3B80027F40E4FCFDFEAB37AA367A
:10016900A935A834C312090A5036E53A2537F5826C
:10017900E5393536F583E0FF74002537F582E43437
:100189007FF583EFF0E4FAF9F8E5372401F537EA6A
:100199003536F536E93535F535E83534F53480AB9E
:1001A900E53BC394405004AF3B80027F40907FB54C
:1001B900EFF0E53BC394405004AF3B80027F40C35E
:1001C900E53B9FF53B7440253AF53AE43539F53975
:1001D900907FB4E020E20302014480F4E4907FB50B
:0701E900F0907FB47402F0F6
:1001F000020372907FB4E04401F0020372907FB476
:10020000E04401F0020372120D2D020372120D433D
:10021000020372120D3B020372120D1F02037212CF
:100220000D654003020372907FE8E0247F60241490
:1002300060312402705BA200E433FF25E0FFA202DC
:10024000E4334F907F00F0E4A3F0907FB57402F0A8
:10025000020372E4907F00F0A3F0907FB57402F087
:10026000020372907FECE0F45480FFC4540FFFE06F
:1002700054072F25E024B4F582E4347FF583E0545D
:1002800001907F00F0E4A3F0907FB57402F00203C8
:1002900072907FB4E04401F0020372120D674003D4
:1002A000020372907FE8E024FE601D2402600302D6
:1002B0000372907FEAE0B40105C200020372907FEE
:1002C000B4E04401F0020372907FEAE0703B907F5B
:1002D000ECE0F45480FFC4540FFFE054072F25E0F6
:1002E00024B4F582E4347FF583E4F0907FECE054AD
:1002F00080FF131313541FFFE054072F907FD7F094
:03030000E4F538E9
:10030300E04420F08069907FB4E04401F080601203
:100313000D69505B907FE8E024FE60182402704F63
:10032300907FEAE0B40104D2008044907FB4E044BB
:1003330001F0803B907FEAE07020907FECE0F45482
:1003430080FFC4540FFFE054072F25E024B4F58247
:10035300E4347FF5837401F08015907FB4E04401A9
:10036300F0800C12037A5007907FB4E04401F090C0
:060373007FB4E04402F03B
:010379002261
:03003300020D5962
:040D590053D8EF324A
:030D5D000116007C
:060D5300D200120D4B223C
:0109FF0022D5
:0209FD00D32203
:020D6100D3229B
:020D6300D32299
:080D3B00907FEAE0F517D322D6
:0E0D1F00907F00E517F0907FB57401F0D322AD
:080D4300907FEAE0F514D322D1
:0E0D2D00907F00E514F0907FB57401F0D322A2
:020D6500D32297
:020D6700D32295
:020D6900D32293
:10037A00754420E4F545907FA5E05410FFC4540F5E
:10038A004450F51513E433F518907FE9E0245EB480
:10039A00080040030205AE9003A8F8282873020457
:1003AA00390204390204080203C00203D60203F226
:1003BA00020411020433907F00E518F0907FB574AF
:1003CA0001F0907FB4E04402F00205AE907F92E023
:1003DA00FFC4540F907F00F0907FB57401F0907FB6
:1003EA00B4E04402F00205AE907F00740FF0907FF3
:1003FA00B57401F0907FB4E04402F00205AE907F3C
:10040A00EAE0F5150205AE907F007407F0907FB51B
:10041A007401F0907FB4E04402F07FE87E03120C8E
:10042A0032D204120A580205AE751801431501901A
:10043A007FEAE0753C00F53DA3E0FEE4EE423C9025
:10044A007FEEE0753E00F53FA3E0FEE4EE423E900B
:10045A007FE8E064C0600302051AE53F453E700389
:10046A00020510C3E53F9440E53E94005008853EDE
:10047A0040853F418006754000754140907FE9E024
:10048A00B4A335E4F542F543C3E5439541E5429506
:10049A00405038E53D2543F582E53C3542F583E099
:1004AA00FF74002543F582E4347FF583EFF00543BA
:1004BA00E5437002054280D0AD417A7F79007E7FA4
:1004CA007F00AB07AF3DAE3C120989907FB5E5418D
:1004DA00F0253DF53DE540353CF53CD3E541953FFA
:1004EA00E540953E4007E4F53EF53F800DC3E53F04
:1004FA009541F53FE53E9540F53E907FB4E020E218
:10050A000302046480F47F647E00120C320205AE9A
:10051A00907FE8E0644060030205AEE53F453E7027
:10052A00030205AEE4907FC5F0907FB4E020E3F9C2
:10053A00907FC5E0754000F541907FE9E0B4A335AE
:10054A00E4F542F543C3E5439541E5429540503809
:10055A0074C02543F582E4347EF583E0FFE53D254A
:10056A0043F582E53C3542F583EFF00543E54370F8
:10057A0002054280D0AD417A7E79C07E7E7FC0ABD3
:10058A0007AF3DAE3C120B6BE541253DF53DE5401D
:10059A00353CF53CC3E53F9541F53FE53E9540F5D1
:0505AA003E020525C31F
:0105AF002229
:100CAD00C0E0C083C082D2015391EF907FAB74013D
:080CBD00F0D082D083D0E032B8
:100CDD00C0E0C083C0825391EF907FAB7404F0D01D
:060CED0082D083D0E0324A
:100CF300C0E0C083C0825391EF907FAB7402F0D009
:060D030082D083D0E03233
:100D0900C0E0C083C0825391EF907FAB7410F0D0E4
:060D190082D083D0E0321D
:010D6B003255
:100CC500C0E0C083C082D2035391EF907FAB74081C
:080CD500F0D082D083D0E032A0
:010D6C003254
:010D6D003253
:010D6E003252
:010D6F003251
:010D70003250
:010D7100324F
:010D7200324E
:010D7300324D
:010D7400324C
:010D7500324B
:010D7600324A
:010D77003249
:010D78003248
:010D79003247
:010D7A003246
:010D7B003245
:060AA900AB07AA06AC0534
:100AAF00E4FDE5186010EA7E000DEE2400F582E407
:100ABF003410F583EAF0EBAE050D74002EF582E4E9
:100ACF003410F583EBF0AF050D74002FF582E4348D
:100ADF0010F583ECF07A107B00AF15120C77AF1581
:030AEF00120B35B2
:010AF20022E1
:0A0B6B008E468F478D488A498B4A59
:100B7500E4F54BE54BC3954850200547E547AE46A0
:100B85007002054614FFE54A254BF582E43549F523
:0A0B950083E0FD120AA9054B80D988
:010B9F002233
:0A0989008E468F478D488A498B4A3D
:10099300E4FD754C01E546901000F0EFA3F0754BB4
:1009A30051E4EDC39548500FE54A2DF582E43549EE
:1009B300F583E4F00D80EB7A107B007D02AF4B12E0
:1009C3000C7792047F647E00120C32AB4AAA49ADC5
:0809D30048AF4B120C5B9204CB
:0109DB0022F9
:10091B001201000100000040470502100100010216
:10092B00000109022000010100A0000904000002DF
:10093B00FF0000000705820240000007050202408D
:10094B000000040309041A0341006E0063006800F1
:10095B006F00720020004300680069007000730094
:10096B001C0345005A002D00550053004200200087
:0E097B0044006500760069006300650000001E
:03004300020A00AE
:100A0000020CAD00020CF300020CDD00020CC5006C
:100A1000020D0900020D6B00020D6C00020D6D004D
:100A2000020D6E00020D6F00020D7000020D7100CC
:100A3000020D7200020D7300020D7400020D7500AC
:100A4000020D7600020D7700020D7800020D79008C
:080A5000020D7A00020D7B008B
:100C9300907FD6E030E712E04401F07F147E00122B
:0A0CA3000C32907FD6E054FEF022E0
:1009DC00907FD6E04480F0438701000000000022A5
:070A5800907FD6E04408F096
:030A5F00E4F54675
:040A6200E054FBF071
:030A6600E4F5466E
:100A6900E04408F0300404E04402F07FDC7E051223
:100A79000C32907F92E030E3077FDC7E05120C3266
:100A8900907FAB74FFF0907FA9F0907FAAF053910B
:080A9900EF907FD6E054F7F066
:030AA100E4F54633
:050AA400E04404F02213
:100C32008E4D8F4E907F92E030E30BE54E25E0F52E
:100C42004EE54D33F54DE54E154EAE4D7002154D48
:090C52004E60051209EC80EE224F
:080D4B00E4F513D2E9D2AF2256
:100B3500907FA5E020E6F9C2E9907FA5E04480F02A
:100B4500EF25E0907FA6F0907FA5E030E0F9907F5B
:100B5500A5E04440F0907FA5E020E6F9907FA5E070
:060B650030E1D6D2E922C6
:100BD400A907907FA5E020E6F9E5137023907FA58F
:100BE400E04480F0E925E0907FA6F08D0EAF03A9E4
:100BF40007750F018A108911E4F512751301D322C8
:020C0400C32209
:100BA000A907907FA5E020E6F9E5137025907FA5C1
:100BB000E04480F0E925E04401907FA6F08D0EAF7F
:100BC00003A907750F018A108911E4F51275130343
:040BD000D322C32247
:03004B0002070E9B
:10070E00C0E0C083C082C085C084C086758600C02C
:10071E00D075D000C000C001C002C003C006C00723
:10072E00907FA5E030E2067513060207F8907FA5CC
:10073E00E020E10CE513640260067513070207F86A
:10074E00E51324FE605F14603624FE70030207E991
:10075E0024FC70030207F5240860030207F8AB0FB0
:10076E00AA10A911AF1205128F827583001208BB51
:10077E00907FA6F0E512650E7070751305806B9074
:10078E007FA6E0AB0FAA10A911AE128E8275830060
:10079E001208E8751302E50E6401704E907FA5E015
:1007AE004420F08045E50E24FEB51207907FA5E0AB
:1007BE004420F0E50E14B5120A907FA5E04440F0F7
:1007CE00751300907FA6E0AB0FAA10A911AE128E82
:1007DE00827583001208E80512800F907FA5E04411
:1007EE0040F075130080037513005391DFD007D0CE
:1007FE0006D003D002D001D000D0D0D086D084D085
:08080E0085D082D083D0E032D6
:020C0600A9073C
:100C0800AE0CAF0D8F828E83A3E064037017AD0125
:100C180019ED7001228F828E83E07C002FFDEC3E5F
:090C2800FEAF0580DF7E007F00B5
:010C310022A0
:100AF300E4FEAC0AAD0B8D828C83A3E06402702DFF
:100B0300AB060EEBB50705AF05AE04228D828C83D1
:100B1300A3A3E0F53CA3E0F53D623CE53C623DE583
:100B23003D623C2DFBE53C3CFCAD0380C97E007F70
:010B330000C1
:010B3400229E
:100C5B00120BA0E51324FA600E146006240770F340
:0C0C6B00D322E4F513D322E4F513D322C6
:100C7700120BD4E51324FA600E146006240770F3F0
:0C0C8700D322E4F513D322E4F513D322AA
:1009EC007400F58690FDA57C05A3E582458370F91E
:0109FC0022D8
:03000000020816DD
:0C081600787FE4F6D8FD75814E02085D85
:1008A200BB010689828A83E0225002E722BBFE0254
:0908B200E32289828A83E4932287
:1008BB00BB010CE58229F582E5833AF583E02250F2
:1008CB0006E92582F8E622BBFE06E92582F8E2223C
:0D08DB00E58229F582E5833AF583E4932256
:1008E800F8BB010DE58229F582E5833AF583E8F046
:1008F800225006E92582C8F622BBFE05E92582C8F2
:02090800F222D9
:10090A00EB9FF5F0EA9E42F0E99D42F0E89C45F043
:01091A0022BA
:100822000205B0E493A3F8E493A34003F68001F237
:1008320008DFF48029E493A3F85407240CC8C333D7
:10084200C4540F4420C8834004F456800146F6DFA6
:10085200E4800B0102040810204080900D5DE47ECC
:10086200019360BCA3FF543F30E509541FFEE4939B
:10087200A360010ECF54C025E060A840B8E493A362
:10088200FAE493A3F8E493A3C8C582C8CAC583CA8D
:10089200F0A3C8C582C8CAC583CADFE9DEE780BE45
:010D60000092
:00000001FF
